{
  "_format": "hh-sol-artifact-1",
  "contractName": "NFTMarketplace",
  "sourceName": "contracts/Marketplace.sol",
  "abi": [
    {
      "inputs": [],
      "stateMutability": "nonpayable",
      "type": "constructor"
    },
    {
      "anonymous": false,
      "inputs": [
        {
          "indexed": true,
          "internalType": "address",
          "name": "owner",
          "type": "address"
        },
        {
          "indexed": true,
          "internalType": "address",
          "name": "approved",
          "type": "address"
        },
        {
          "indexed": true,
          "internalType": "uint256",
          "name": "tokenId",
          "type": "uint256"
        }
      ],
      "name": "Approval",
      "type": "event"
    },
    {
      "anonymous": false,
      "inputs": [
        {
          "indexed": true,
          "internalType": "address",
          "name": "owner",
          "type": "address"
        },
        {
          "indexed": true,
          "internalType": "address",
          "name": "operator",
          "type": "address"
        },
        {
          "indexed": false,
          "internalType": "bool",
          "name": "approved",
          "type": "bool"
        }
      ],
      "name": "ApprovalForAll",
      "type": "event"
    },
    {
      "anonymous": false,
      "inputs": [
        {
          "indexed": true,
          "internalType": "uint256",
          "name": "tokenId",
          "type": "uint256"
        },
        {
          "indexed": false,
          "internalType": "address",
          "name": "seller",
          "type": "address"
        },
        {
          "indexed": false,
          "internalType": "address",
          "name": "owner",
          "type": "address"
        },
        {
          "indexed": false,
          "internalType": "uint256",
          "name": "price",
          "type": "uint256"
        },
        {
          "indexed": false,
          "internalType": "bool",
          "name": "sold",
          "type": "bool"
        },
        {
          "indexed": false,
          "internalType": "uint256",
          "name": "coll",
          "type": "uint256"
        }
      ],
      "name": "MarketItemCreated",
      "type": "event"
    },
    {
      "anonymous": false,
      "inputs": [
        {
          "indexed": true,
          "internalType": "address",
          "name": "from",
          "type": "address"
        },
        {
          "indexed": true,
          "internalType": "address",
          "name": "to",
          "type": "address"
        },
        {
          "indexed": true,
          "internalType": "uint256",
          "name": "tokenId",
          "type": "uint256"
        }
      ],
      "name": "Transfer",
      "type": "event"
    },
    {
      "inputs": [
        {
          "internalType": "uint256",
          "name": "tokenId",
          "type": "uint256"
        },
        {
          "internalType": "uint256",
          "name": "collectionId",
          "type": "uint256"
        }
      ],
      "name": "addNFTtoCollection",
      "outputs": [],
      "stateMutability": "nonpayable",
      "type": "function"
    },
    {
      "inputs": [
        {
          "internalType": "address",
          "name": "to",
          "type": "address"
        },
        {
          "internalType": "uint256",
          "name": "tokenId",
          "type": "uint256"
        }
      ],
      "name": "approve",
      "outputs": [],
      "stateMutability": "nonpayable",
      "type": "function"
    },
    {
      "inputs": [
        {
          "internalType": "address",
          "name": "owner",
          "type": "address"
        }
      ],
      "name": "balanceOf",
      "outputs": [
        {
          "internalType": "uint256",
          "name": "",
          "type": "uint256"
        }
      ],
      "stateMutability": "view",
      "type": "function"
    },
    {
      "inputs": [
        {
          "internalType": "uint256",
          "name": "tokenId",
          "type": "uint256"
        }
      ],
      "name": "createMarketSale",
      "outputs": [],
      "stateMutability": "payable",
      "type": "function"
    },
    {
      "inputs": [
        {
          "internalType": "string",
          "name": "collectionURI",
          "type": "string"
        }
      ],
      "name": "createNFTCollection",
      "outputs": [],
      "stateMutability": "payable",
      "type": "function"
    },
    {
      "inputs": [
        {
          "internalType": "string",
          "name": "tokenURI",
          "type": "string"
        },
        {
          "internalType": "uint256",
          "name": "price",
          "type": "uint256"
        },
        {
          "internalType": "uint256",
          "name": "collecctionId",
          "type": "uint256"
        }
      ],
      "name": "createToken",
      "outputs": [
        {
          "internalType": "uint256",
          "name": "",
          "type": "uint256"
        }
      ],
      "stateMutability": "payable",
      "type": "function"
    },
    {
      "inputs": [],
      "name": "fetchAllArtists",
      "outputs": [
        {
          "internalType": "address[]",
          "name": "",
          "type": "address[]"
        }
      ],
      "stateMutability": "view",
      "type": "function"
    },
    {
      "inputs": [
        {
          "internalType": "address",
          "name": "artist",
          "type": "address"
        }
      ],
      "name": "fetchArtistCollections",
      "outputs": [
        {
          "components": [
            {
              "internalType": "uint256",
              "name": "collectionId",
              "type": "uint256"
            },
            {
              "internalType": "address payable",
              "name": "creator",
              "type": "address"
            }
          ],
          "internalType": "struct NFTMarketplace.Collections[]",
          "name": "",
          "type": "tuple[]"
        }
      ],
      "stateMutability": "view",
      "type": "function"
    },
    {
      "inputs": [],
      "name": "fetchItemsListed",
      "outputs": [
        {
          "components": [
            {
              "internalType": "uint256",
              "name": "tokenId",
              "type": "uint256"
            },
            {
              "internalType": "address payable",
              "name": "seller",
              "type": "address"
            },
            {
              "internalType": "address payable",
              "name": "owner",
              "type": "address"
            },
            {
              "internalType": "uint256",
              "name": "price",
              "type": "uint256"
            },
            {
              "internalType": "bool",
              "name": "sold",
              "type": "bool"
            },
            {
              "internalType": "uint256",
              "name": "coll",
              "type": "uint256"
            }
          ],
          "internalType": "struct NFTMarketplace.MarketItem[]",
          "name": "",
          "type": "tuple[]"
        }
      ],
      "stateMutability": "view",
      "type": "function"
    },
    {
      "inputs": [],
      "name": "fetchMarketCollections",
      "outputs": [
        {
          "components": [
            {
              "internalType": "uint256",
              "name": "collectionId",
              "type": "uint256"
            },
            {
              "internalType": "address payable",
              "name": "creator",
              "type": "address"
            }
          ],
          "internalType": "struct NFTMarketplace.Collections[]",
          "name": "",
          "type": "tuple[]"
        }
      ],
      "stateMutability": "view",
      "type": "function"
    },
    {
      "inputs": [],
      "name": "fetchMarketItems",
      "outputs": [
        {
          "components": [
            {
              "internalType": "uint256",
              "name": "tokenId",
              "type": "uint256"
            },
            {
              "internalType": "address payable",
              "name": "seller",
              "type": "address"
            },
            {
              "internalType": "address payable",
              "name": "owner",
              "type": "address"
            },
            {
              "internalType": "uint256",
              "name": "price",
              "type": "uint256"
            },
            {
              "internalType": "bool",
              "name": "sold",
              "type": "bool"
            },
            {
              "internalType": "uint256",
              "name": "coll",
              "type": "uint256"
            }
          ],
          "internalType": "struct NFTMarketplace.MarketItem[]",
          "name": "",
          "type": "tuple[]"
        }
      ],
      "stateMutability": "view",
      "type": "function"
    },
    {
      "inputs": [],
      "name": "fetchMyNFTs",
      "outputs": [
        {
          "components": [
            {
              "internalType": "uint256",
              "name": "tokenId",
              "type": "uint256"
            },
            {
              "internalType": "address payable",
              "name": "seller",
              "type": "address"
            },
            {
              "internalType": "address payable",
              "name": "owner",
              "type": "address"
            },
            {
              "internalType": "uint256",
              "name": "price",
              "type": "uint256"
            },
            {
              "internalType": "bool",
              "name": "sold",
              "type": "bool"
            },
            {
              "internalType": "uint256",
              "name": "coll",
              "type": "uint256"
            }
          ],
          "internalType": "struct NFTMarketplace.MarketItem[]",
          "name": "",
          "type": "tuple[]"
        }
      ],
      "stateMutability": "view",
      "type": "function"
    },
    {
      "inputs": [
        {
          "internalType": "uint256",
          "name": "tokenId",
          "type": "uint256"
        }
      ],
      "name": "getApproved",
      "outputs": [
        {
          "internalType": "address",
          "name": "",
          "type": "address"
        }
      ],
      "stateMutability": "view",
      "type": "function"
    },
    {
      "inputs": [],
      "name": "getCollectingPrice",
      "outputs": [
        {
          "internalType": "uint256",
          "name": "",
          "type": "uint256"
        }
      ],
      "stateMutability": "view",
      "type": "function"
    },
    {
      "inputs": [
        {
          "internalType": "uint256",
          "name": "collecctionId",
          "type": "uint256"
        }
      ],
      "name": "getItemsofCollection",
      "outputs": [
        {
          "components": [
            {
              "internalType": "uint256",
              "name": "tokenId",
              "type": "uint256"
            },
            {
              "internalType": "address payable",
              "name": "seller",
              "type": "address"
            },
            {
              "internalType": "address payable",
              "name": "owner",
              "type": "address"
            },
            {
              "internalType": "uint256",
              "name": "price",
              "type": "uint256"
            },
            {
              "internalType": "bool",
              "name": "sold",
              "type": "bool"
            },
            {
              "internalType": "uint256",
              "name": "coll",
              "type": "uint256"
            }
          ],
          "internalType": "struct NFTMarketplace.MarketItem[]",
          "name": "",
          "type": "tuple[]"
        }
      ],
      "stateMutability": "view",
      "type": "function"
    },
    {
      "inputs": [],
      "name": "getListingPrice",
      "outputs": [
        {
          "internalType": "uint256",
          "name": "",
          "type": "uint256"
        }
      ],
      "stateMutability": "view",
      "type": "function"
    },
    {
      "inputs": [
        {
          "internalType": "address",
          "name": "owner",
          "type": "address"
        },
        {
          "internalType": "address",
          "name": "operator",
          "type": "address"
        }
      ],
      "name": "isApprovedForAll",
      "outputs": [
        {
          "internalType": "bool",
          "name": "",
          "type": "bool"
        }
      ],
      "stateMutability": "view",
      "type": "function"
    },
    {
      "inputs": [],
      "name": "name",
      "outputs": [
        {
          "internalType": "string",
          "name": "",
          "type": "string"
        }
      ],
      "stateMutability": "view",
      "type": "function"
    },
    {
      "inputs": [
        {
          "internalType": "uint256",
          "name": "tokenId",
          "type": "uint256"
        }
      ],
      "name": "ownerOf",
      "outputs": [
        {
          "internalType": "address",
          "name": "",
          "type": "address"
        }
      ],
      "stateMutability": "view",
      "type": "function"
    },
    {
      "inputs": [
        {
          "internalType": "uint256",
          "name": "tokenId",
          "type": "uint256"
        },
        {
          "internalType": "uint256",
          "name": "price",
          "type": "uint256"
        }
      ],
      "name": "resellToken",
      "outputs": [],
      "stateMutability": "payable",
      "type": "function"
    },
    {
      "inputs": [
        {
          "internalType": "address",
          "name": "from",
          "type": "address"
        },
        {
          "internalType": "address",
          "name": "to",
          "type": "address"
        },
        {
          "internalType": "uint256",
          "name": "tokenId",
          "type": "uint256"
        }
      ],
      "name": "safeTransferFrom",
      "outputs": [],
      "stateMutability": "nonpayable",
      "type": "function"
    },
    {
      "inputs": [
        {
          "internalType": "address",
          "name": "from",
          "type": "address"
        },
        {
          "internalType": "address",
          "name": "to",
          "type": "address"
        },
        {
          "internalType": "uint256",
          "name": "tokenId",
          "type": "uint256"
        },
        {
          "internalType": "bytes",
          "name": "_data",
          "type": "bytes"
        }
      ],
      "name": "safeTransferFrom",
      "outputs": [],
      "stateMutability": "nonpayable",
      "type": "function"
    },
    {
      "inputs": [
        {
          "internalType": "address",
          "name": "operator",
          "type": "address"
        },
        {
          "internalType": "bool",
          "name": "approved",
          "type": "bool"
        }
      ],
      "name": "setApprovalForAll",
      "outputs": [],
      "stateMutability": "nonpayable",
      "type": "function"
    },
    {
      "inputs": [
        {
          "internalType": "bytes4",
          "name": "interfaceId",
          "type": "bytes4"
        }
      ],
      "name": "supportsInterface",
      "outputs": [
        {
          "internalType": "bool",
          "name": "",
          "type": "bool"
        }
      ],
      "stateMutability": "view",
      "type": "function"
    },
    {
      "inputs": [],
      "name": "symbol",
      "outputs": [
        {
          "internalType": "string",
          "name": "",
          "type": "string"
        }
      ],
      "stateMutability": "view",
      "type": "function"
    },
    {
      "inputs": [
        {
          "internalType": "uint256",
          "name": "tokenId",
          "type": "uint256"
        }
      ],
      "name": "tokenURI",
      "outputs": [
        {
          "internalType": "string",
          "name": "",
          "type": "string"
        }
      ],
      "stateMutability": "view",
      "type": "function"
    },
    {
      "inputs": [
        {
          "internalType": "address",
          "name": "from",
          "type": "address"
        },
        {
          "internalType": "address",
          "name": "to",
          "type": "address"
        },
        {
          "internalType": "uint256",
          "name": "tokenId",
          "type": "uint256"
        }
      ],
      "name": "transferFrom",
      "outputs": [],
      "stateMutability": "nonpayable",
      "type": "function"
    },
    {
      "inputs": [
        {
          "internalType": "uint256",
          "name": "_collectingPrice",
          "type": "uint256"
        }
      ],
      "name": "updateCollectingPrice",
      "outputs": [],
      "stateMutability": "payable",
      "type": "function"
    },
    {
      "inputs": [
        {
          "internalType": "uint256",
          "name": "_listingPrice",
          "type": "uint256"
        }
      ],
      "name": "updateListingPrice",
      "outputs": [],
      "stateMutability": "payable",
      "type": "function"
    }
  ],
  "bytecode": "0x60806040526658d15e17628000600a556658d15e17628000600b553480156200002757600080fd5b50604080518082018252601081526f4d657461766572736520546f6b656e7360801b6020808301918252835180850190945260048452631351551560e21b9084015281519192916200007c91600091620000ad565b50805162000092906001906020840190620000ad565b5050600c80546001600160a01b031916331790555062000190565b828054620000bb9062000153565b90600052602060002090601f016020900481019282620000df57600085556200012a565b82601f10620000fa57805160ff19168380011785556200012a565b828001600101855582156200012a579182015b828111156200012a5782518255916020019190600101906200010d565b50620001389291506200013c565b5090565b5b808211156200013857600081556001016200013d565b600181811c908216806200016857607f821691505b602082108114156200018a57634e487b7160e01b600052602260045260246000fd5b50919050565b612c6b80620001a06000396000f3fe6080604052600436106101c25760003560e01c806370a08231116100f7578063b88d4fde11610095578063e219fc7511610064578063e219fc75146104bd578063e985e9c5146104d0578063f7d84d8e14610519578063ffbd1b201461053957600080fd5b8063b88d4fde14610457578063be9af53614610477578063bec2a7c51461048a578063c87b56dd1461049d57600080fd5b80639d3b7f09116100d15780639d3b7f09146103ef578063a21f6adc1461040f578063a22cb46514610424578063ae677aa31461044457600080fd5b806370a08231146103985780637fff4f7f146103b857806395d89b41146103da57600080fd5b8063202e37401161016457806342842e0e1161013e57806342842e0e1461032157806345f8fa80146103415780636352211e146103565780636910eb2d1461037657600080fd5b8063202e3740146102cc57806323b872dd146102e15780633ece117d1461030157600080fd5b8063095ea7b3116101a0578063095ea7b3146102565780630f08efe01461027857806312e855851461029a5780631b9af21d146102b957600080fd5b806301ffc9a7146101c757806306fdde03146101fc578063081812fc1461021e575b600080fd5b3480156101d357600080fd5b506101e76101e2366004612761565b61054c565b60405190151581526020015b60405180910390f35b34801561020857600080fd5b5061021161059e565b6040516101f39190612a07565b34801561022a57600080fd5b5061023e610239366004612818565b610630565b6040516001600160a01b0390911681526020016101f3565b34801561026257600080fd5b50610276610271366004612738565b6106bd565b005b34801561028457600080fd5b5061028d6107d3565b6040516101f3919061298e565b3480156102a657600080fd5b50600a545b6040519081526020016101f3565b6102766102c7366004612818565b61097e565b3480156102d857600080fd5b5061028d6109f9565b3480156102ed57600080fd5b506102766102fc36600461264a565b610bd5565b34801561030d57600080fd5b5061027661031c366004612830565b610c06565b34801561032d57600080fd5b5061027661033c36600461264a565b610ce8565b34801561034d57600080fd5b5061028d610d03565b34801561036257600080fd5b5061023e610371366004612818565b610edf565b34801561038257600080fd5b5061038b610f56565b6040516101f391906128e9565b3480156103a457600080fd5b506102ab6103b33660046125fe565b610fb7565b3480156103c457600080fd5b506103cd61103e565b6040516101f39190612936565b3480156103e657600080fd5b50610211611155565b3480156103fb57600080fd5b5061028d61040a366004612818565b611164565b34801561041b57600080fd5b50600b546102ab565b34801561043057600080fd5b5061027661043f3660046126fe565b61121d565b610276610452366004612818565b61122c565b34801561046357600080fd5b50610276610472366004612685565b6112a4565b610276610485366004612818565b6112dc565b6102ab6104983660046127cc565b611441565b3480156104a957600080fd5b506102116104b8366004612818565b611487565b6102766104cb366004612830565b6115f6565b3480156104dc57600080fd5b506101e76104eb366004612618565b6001600160a01b03918216600090815260056020908152604080832093909416825291909152205460ff1690565b34801561052557600080fd5b506103cd6105343660046125fe565b6116ee565b610276610547366004612799565b611777565b60006001600160e01b031982166380ac58cd60e01b148061057d57506001600160e01b03198216635b5e139f60e01b145b8061059857506301ffc9a760e01b6001600160e01b03198316145b92915050565b6060600080546105ad90612b70565b80601f01602080910402602001604051908101604052809291908181526020018280546105d990612b70565b80156106265780601f106105fb57610100808354040283529160200191610626565b820191906000526020600020905b81548152906001019060200180831161060957829003601f168201915b5050505050905090565b600061063b826118cb565b6106a15760405162461bcd60e51b815260206004820152602c60248201527f4552433732313a20617070726f76656420717565727920666f72206e6f6e657860448201526b34b9ba32b73a103a37b5b2b760a11b60648201526084015b60405180910390fd5b506000908152600460205260409020546001600160a01b031690565b60006106c882610edf565b9050806001600160a01b0316836001600160a01b031614156107365760405162461bcd60e51b815260206004820152602160248201527f4552433732313a20617070726f76616c20746f2063757272656e74206f776e656044820152603960f91b6064820152608401610698565b336001600160a01b0382161480610752575061075281336104eb565b6107c45760405162461bcd60e51b815260206004820152603860248201527f4552433732313a20617070726f76652063616c6c6572206973206e6f74206f7760448201527f6e6572206e6f7220617070726f76656420666f7220616c6c00000000000000006064820152608401610698565b6107ce83836118e8565b505050565b606060006107e060075490565b905060006107ed60095490565b6008546007546107fd9190612b2d565b6108079190612b2d565b90506000808267ffffffffffffffff81111561083357634e487b7160e01b600052604160045260246000fd5b60405190808252806020026020018201604052801561086c57816020015b61085961246a565b8152602001906001900390816108515790505b50905060005b848110156109755730600e600061088a846001612b01565b81526020810191909152604001600020600201546001600160a01b031614156109635760006108ba826001612b01565b6000818152600e6020908152604091829020825160c0810184528154815260018201546001600160a01b039081169382019390935260028201549092169282019290925260038201546060820152600482015460ff1615156080820152600582015460a08201528551929350909185908790811061094857634e487b7160e01b600052603260045260246000fd5b602090810291909101015261095e600186612b01565b945050505b8061096d81612bab565b915050610872565b50949350505050565b600c546001600160a01b031633146109f45760405162461bcd60e51b815260206004820152603360248201527f4f6e6c79206d61726b6574706c616365206f776e65722063616e207570646174604482015272329031b7b63632b1ba34b73390383934b1b29760691b6064820152608401610698565b600b55565b60606000610a0660075490565b905060008060005b83811015610a695733600e6000610a26846001612b01565b81526020810191909152604001600020600201546001600160a01b03161415610a5757610a54600184612b01565b92505b80610a6181612bab565b915050610a0e565b5060008267ffffffffffffffff811115610a9357634e487b7160e01b600052604160045260246000fd5b604051908082528060200260200182016040528015610acc57816020015b610ab961246a565b815260200190600190039081610ab15790505b50905060005b848110156109755733600e6000610aea846001612b01565b81526020810191909152604001600020600201546001600160a01b03161415610bc3576000610b1a826001612b01565b6000818152600e6020908152604091829020825160c0810184528154815260018201546001600160a01b039081169382019390935260028201549092169282019290925260038201546060820152600482015460ff1615156080820152600582015460a082015285519293509091859087908110610ba857634e487b7160e01b600052603260045260246000fd5b6020908102919091010152610bbe600186612b01565b945050505b80610bcd81612bab565b915050610ad2565b610bdf3382611956565b610bfb5760405162461bcd60e51b815260040161069890612ab0565b6107ce838383611a3f565b6000918252600e60209081526040808420815160c081018352815481526001808301546001600160a01b039081168387019081526002808601548316858801908152600380880154606088019081526004808a015460ff16151560808a0190815260059a8b015460a08b019081529d8f5260118d529a8e208054808a018255908f529b909d2097516006909b02909701998a55925194890180549585166001600160a01b03199687161790555190880180549190931693169290921790559051908401559051938201805494151560ff19909516949094179093559051910155565b6107ce838383604051806020016040528060008152506112a4565b60606000610d1060075490565b905060008060005b83811015610d735733600e6000610d30846001612b01565b81526020810191909152604001600020600101546001600160a01b03161415610d6157610d5e600184612b01565b92505b80610d6b81612bab565b915050610d18565b5060008267ffffffffffffffff811115610d9d57634e487b7160e01b600052604160045260246000fd5b604051908082528060200260200182016040528015610dd657816020015b610dc361246a565b815260200190600190039081610dbb5790505b50905060005b848110156109755733600e6000610df4846001612b01565b81526020810191909152604001600020600101546001600160a01b03161415610ecd576000610e24826001612b01565b6000818152600e6020908152604091829020825160c0810184528154815260018201546001600160a01b039081169382019390935260028201549092169282019290925260038201546060820152600482015460ff1615156080820152600582015460a082015285519293509091859087908110610eb257634e487b7160e01b600052603260045260246000fd5b6020908102919091010152610ec8600186612b01565b945050505b80610ed781612bab565b915050610ddc565b6000818152600260205260408120546001600160a01b0316806105985760405162461bcd60e51b815260206004820152602960248201527f4552433732313a206f776e657220717565727920666f72206e6f6e657869737460448201526832b73a103a37b5b2b760b91b6064820152608401610698565b6060600d80548060200260200160405190810160405280929190818152602001828054801561062657602002820191906000526020600020905b81546001600160a01b03168152600190910190602001808311610f90575050505050905090565b60006001600160a01b0382166110225760405162461bcd60e51b815260206004820152602a60248201527f4552433732313a2062616c616e636520717565727920666f7220746865207a65604482015269726f206164647265737360b01b6064820152608401610698565b506001600160a01b031660009081526003602052604090205490565b6060600061104b60095490565b90506000808267ffffffffffffffff81111561107757634e487b7160e01b600052604160045260246000fd5b6040519080825280602002602001820160405280156110bc57816020015b60408051808201909152600080825260208201528152602001906001900390816110955790505b50905060015b83811161114d576000818152600f602090815260409182902082518084019093528054835260018101546001600160a01b031691830191909152835190919084908690811061112157634e487b7160e01b600052603260045260246000fd5b6020908102919091010152611137600185612b01565b935050808061114590612bab565b9150506110c2565b509392505050565b6060600180546105ad90612b70565b606060116000838152602001908152602001600020805480602002602001604051908101604052809291908181526020016000905b828210156112125760008481526020908190206040805160c08101825260068602909201805483526001808201546001600160a01b03908116858701526002830154169284019290925260038101546060840152600481015460ff16151560808401526005015460a08301529083529092019101611199565b505050509050919050565b611228338383611bdb565b5050565b600c546001600160a01b0316331461129f5760405162461bcd60e51b815260206004820152603060248201527f4f6e6c79206d61726b6574706c616365206f776e65722063616e20757064617460448201526f32903634b9ba34b73390383934b1b29760811b6064820152608401610698565b600a55565b6112ae3383611956565b6112ca5760405162461bcd60e51b815260040161069890612ab0565b6112d684848484611caa565b50505050565b6000818152600e6020526040902060038101546001909101546001600160a01b0316348214611375576040805162461bcd60e51b81526020600482015260248101919091527f506c65617365207375626d6974207468652061736b696e67207072696365206960448201527f6e206f7264657220746f20636f6d706c657465207468652070757263686173656064820152608401610698565b6000838152600e602052604090206002810180546001600160a01b0319908116331790915560048201805460ff19166001908117909155909101805490911690556113c4600880546001019055565b6113cf303385611a3f565b600c54600a546040516001600160a01b039092169181156108fc0291906000818181858888f1935050505015801561140b573d6000803e3d6000fd5b506040516001600160a01b038216903480156108fc02916000818181858888f193505050501580156112d6573d6000803e3d6000fd5b6000611451600780546001019055565b600061145c60075490565b90506114683382611cdd565b6114728186611e10565b61147f8185856000611e9b565b949350505050565b6060611492826118cb565b6114f85760405162461bcd60e51b815260206004820152603160248201527f45524337323155524953746f726167653a2055524920717565727920666f72206044820152703737b732bc34b9ba32b73a103a37b5b2b760791b6064820152608401610698565b6000828152600660205260408120805461151190612b70565b80601f016020809104026020016040519081016040528092919081815260200182805461153d90612b70565b801561158a5780601f1061155f5761010080835404028352916020019161158a565b820191906000526020600020905b81548152906001019060200180831161156d57829003601f168201915b5050505050905060006115a860408051602081019091526000815290565b90508051600014156115bb575092915050565b8151156115ed5780826040516020016115d592919061287d565b60405160208183030381529060405292505050919050565b61147f84612114565b6000828152600e60205260409020600201546001600160a01b031633146116725760405162461bcd60e51b815260206004820152602a60248201527f4f6e6c79206974656d206f776e65722063616e20706572666f726d20746869736044820152691037b832b930ba34b7b760b11b6064820152608401610698565b600a5434146116935760405162461bcd60e51b815260040161069890612a6c565b6000828152600e6020526040902060048101805460ff19169055600381018290556001810180546001600160a01b0319908116331790915560029091018054909116301790556116e360086121ec565b611228333084611a3f565b6001600160a01b0381166000908152601060209081526040808320805482518185028101850190935280835260609493849084015b8282101561176b5760008481526020908190206040805180820190915260028502909101805482526001908101546001600160a01b0316828401529083529092019101611723565b50929695505050505050565b600b5434146117d85760405162461bcd60e51b815260206004820152602760248201527f5072696365206d75737420626520657175616c20746f20636f6c6c656374696e6044820152666720707269636560c81b6064820152608401610698565b6117e6600780546001019055565b6117f4600980546001019055565b60006117ff60075490565b905061180b3382611cdd565b6118158183611e10565b604080518082018252828152336020808301828152600d805460018181019092557fd7b6990105719101dabeb77144f2a3385c8033acd3af97e9423a695e81ad1eb50180546001600160a01b03199081168617909155600094855260108452868520805480840182559086528486208751600290920201908155835190830180546001600160a01b03928316908416179055978552600f9093529490922092518355905191909201805491909316911617905550565b6000908152600260205260409020546001600160a01b0316151590565b600081815260046020526040902080546001600160a01b0319166001600160a01b038416908117909155819061191d82610edf565b6001600160a01b03167f8c5be1e5ebec7d5bd14f71427d1e84f3dd0314c0f7b2291e5b200ac8c7c3b92560405160405180910390a45050565b6000611961826118cb565b6119c25760405162461bcd60e51b815260206004820152602c60248201527f4552433732313a206f70657261746f7220717565727920666f72206e6f6e657860448201526b34b9ba32b73a103a37b5b2b760a11b6064820152608401610698565b60006119cd83610edf565b9050806001600160a01b0316846001600160a01b03161480611a1457506001600160a01b0380821660009081526005602090815260408083209388168352929052205460ff165b8061147f5750836001600160a01b0316611a2d84610630565b6001600160a01b031614949350505050565b826001600160a01b0316611a5282610edf565b6001600160a01b031614611ab65760405162461bcd60e51b815260206004820152602560248201527f4552433732313a207472616e736665722066726f6d20696e636f72726563742060448201526437bbb732b960d91b6064820152608401610698565b6001600160a01b038216611b185760405162461bcd60e51b8152602060048201526024808201527f4552433732313a207472616e7366657220746f20746865207a65726f206164646044820152637265737360e01b6064820152608401610698565b611b236000826118e8565b6001600160a01b0383166000908152600360205260408120805460019290611b4c908490612b2d565b90915550506001600160a01b0382166000908152600360205260408120805460019290611b7a908490612b01565b909155505060008181526002602052604080822080546001600160a01b0319166001600160a01b0386811691821790925591518493918716917fddf252ad1be2c89b69c2b068fc378daa952ba7f163c4a11628f55a4df523b3ef91a4505050565b816001600160a01b0316836001600160a01b03161415611c3d5760405162461bcd60e51b815260206004820152601960248201527f4552433732313a20617070726f766520746f2063616c6c6572000000000000006044820152606401610698565b6001600160a01b03838116600081815260056020908152604080832094871680845294825291829020805460ff191686151590811790915591519182527f17307eab39ab6107e8899845ad3d59bd9653f200f220920489ca2b5937696c31910160405180910390a3505050565b611cb5848484611a3f565b611cc184848484612243565b6112d65760405162461bcd60e51b815260040161069890612a1a565b6001600160a01b038216611d335760405162461bcd60e51b815260206004820181905260248201527f4552433732313a206d696e7420746f20746865207a65726f20616464726573736044820152606401610698565b611d3c816118cb565b15611d895760405162461bcd60e51b815260206004820152601c60248201527f4552433732313a20746f6b656e20616c7265616479206d696e746564000000006044820152606401610698565b6001600160a01b0382166000908152600360205260408120805460019290611db2908490612b01565b909155505060008181526002602052604080822080546001600160a01b0319166001600160a01b03861690811790915590518392907fddf252ad1be2c89b69c2b068fc378daa952ba7f163c4a11628f55a4df523b3ef908290a45050565b611e19826118cb565b611e7c5760405162461bcd60e51b815260206004820152602e60248201527f45524337323155524953746f726167653a2055524920736574206f66206e6f6e60448201526d32bc34b9ba32b73a103a37b5b2b760911b6064820152608401610698565b600082815260066020908152604090912082516107ce928401906124b4565b8015611f0d57600a54831015611f085760405162461bcd60e51b815260206004820152602c60248201527f50726963652061746c65617374206d75737420626520657175616c20746f206c60448201526b697374696e6720707269636560a01b6064820152608401610698565b611f7e565b60008311611f5d5760405162461bcd60e51b815260206004820152601c60248201527f5072696365206d757374206265206174206c65617374203120776569000000006044820152606401610698565b600a543414611f7e5760405162461bcd60e51b815260040161069890612a6c565b6000828152600f6020908152604091829020825180840190935280548352600101546001600160a01b0316908201819052331461200e5760405162461bcd60e51b815260206004820152602860248201527f596f75204d75737420626520746865206f776e6572206f662074686520636f6c6044820152673632b1ba34b7b71760c11b6064820152608401610698565b6040805160c081018252868152336020808301918252308385019081526060840189815260006080860181815260a087018b81528d8352600e9095529690209451855592516001850180546001600160a01b03199081166001600160a01b03938416179091559151600286018054909316911617905590516003830155915160048201805460ff191691151591909117905590516005909101556120b28584610c06565b6120bd333087611a3f565b60408051338152306020820152908101859052600060608201526080810184905285907f2d68735082042d66c5027bd8c6f7e29d9eaa7ce21cd00f9671f170b22a091d289060a00160405180910390a25050505050565b606061211f826118cb565b6121835760405162461bcd60e51b815260206004820152602f60248201527f4552433732314d657461646174613a2055524920717565727920666f72206e6f60448201526e3732bc34b9ba32b73a103a37b5b2b760891b6064820152608401610698565b600061219a60408051602081019091526000815290565b905060008151116121ba57604051806020016040528060008152506121e5565b806121c484612350565b6040516020016121d592919061287d565b6040516020818303038152906040525b9392505050565b80548061223b5760405162461bcd60e51b815260206004820152601b60248201527f436f756e7465723a2064656372656d656e74206f766572666c6f7700000000006044820152606401610698565b600019019055565b60006001600160a01b0384163b1561234557604051630a85bd0160e11b81526001600160a01b0385169063150b7a02906122879033908990889088906004016128ac565b602060405180830381600087803b1580156122a157600080fd5b505af19250505080156122d1575060408051601f3d908101601f191682019092526122ce9181019061277d565b60015b61232b573d8080156122ff576040519150601f19603f3d011682016040523d82523d6000602084013e612304565b606091505b5080516123235760405162461bcd60e51b815260040161069890612a1a565b805181602001fd5b6001600160e01b031916630a85bd0160e11b14905061147f565b506001949350505050565b6060816123745750506040805180820190915260018152600360fc1b602082015290565b8160005b811561239e578061238881612bab565b91506123979050600a83612b19565b9150612378565b60008167ffffffffffffffff8111156123c757634e487b7160e01b600052604160045260246000fd5b6040519080825280601f01601f1916602001820160405280156123f1576020820181803683370190505b5090505b841561147f57612406600183612b2d565b9150612413600a86612bc6565b61241e906030612b01565b60f81b81838151811061244157634e487b7160e01b600052603260045260246000fd5b60200101906001600160f81b031916908160001a905350612463600a86612b19565b94506123f5565b6040518060c001604052806000815260200160006001600160a01b0316815260200160006001600160a01b0316815260200160008152602001600015158152602001600081525090565b8280546124c090612b70565b90600052602060002090601f0160209004810192826124e25760008555612528565b82601f106124fb57805160ff1916838001178555612528565b82800160010185558215612528579182015b8281111561252857825182559160200191906001019061250d565b50612534929150612538565b5090565b5b808211156125345760008155600101612539565b600067ffffffffffffffff8084111561256857612568612c06565b604051601f8501601f19908116603f0116810190828211818310171561259057612590612c06565b816040528093508581528686860111156125a957600080fd5b858560208301376000602087830101525050509392505050565b80356001600160a01b03811681146125da57600080fd5b919050565b600082601f8301126125ef578081fd5b6121e58383356020850161254d565b60006020828403121561260f578081fd5b6121e5826125c3565b6000806040838503121561262a578081fd5b612633836125c3565b9150612641602084016125c3565b90509250929050565b60008060006060848603121561265e578081fd5b612667846125c3565b9250612675602085016125c3565b9150604084013590509250925092565b6000806000806080858703121561269a578081fd5b6126a3856125c3565b93506126b1602086016125c3565b925060408501359150606085013567ffffffffffffffff8111156126d3578182fd5b8501601f810187136126e3578182fd5b6126f28782356020840161254d565b91505092959194509250565b60008060408385031215612710578182fd5b612719836125c3565b91506020830135801515811461272d578182fd5b809150509250929050565b6000806040838503121561274a578182fd5b612753836125c3565b946020939093013593505050565b600060208284031215612772578081fd5b81356121e581612c1c565b60006020828403121561278e578081fd5b81516121e581612c1c565b6000602082840312156127aa578081fd5b813567ffffffffffffffff8111156127c0578182fd5b61147f848285016125df565b6000806000606084860312156127e0578283fd5b833567ffffffffffffffff8111156127f6578384fd5b612802868287016125df565b9660208601359650604090950135949350505050565b600060208284031215612829578081fd5b5035919050565b60008060408385031215612842578182fd5b50508035926020909101359150565b60008151808452612869816020860160208601612b44565b601f01601f19169290920160200192915050565b6000835161288f818460208801612b44565b8351908301906128a3818360208801612b44565b01949350505050565b6001600160a01b03858116825284166020820152604081018390526080606082018190526000906128df90830184612851565b9695505050505050565b6020808252825182820181905260009190848201906040850190845b8181101561292a5783516001600160a01b031683529284019291840191600101612905565b50909695505050505050565b602080825282518282018190526000919060409081850190868401855b82811015612981578151805185528601516001600160a01b0316868501529284019290850190600101612953565b5091979650505050505050565b602080825282518282018190526000919060409081850190868401855b8281101561298157815180518552868101516001600160a01b03908116888701528682015116868601526060808201519086015260808082015115159086015260a0908101519085015260c090930192908501906001016129ab565b6020815260006121e56020830184612851565b60208082526032908201527f4552433732313a207472616e7366657220746f206e6f6e20455243373231526560408201527131b2b4bb32b91034b6b83632b6b2b73a32b960711b606082015260800190565b60208082526024908201527f5072696365206d75737420626520657175616c20746f206c697374696e6720706040820152637269636560e01b606082015260800190565b60208082526031908201527f4552433732313a207472616e736665722063616c6c6572206973206e6f74206f6040820152701ddb995c881b9bdc88185c1c1c9bdd9959607a1b606082015260800190565b60008219821115612b1457612b14612bda565b500190565b600082612b2857612b28612bf0565b500490565b600082821015612b3f57612b3f612bda565b500390565b60005b83811015612b5f578181015183820152602001612b47565b838111156112d65750506000910152565b600181811c90821680612b8457607f821691505b60208210811415612ba557634e487b7160e01b600052602260045260246000fd5b50919050565b6000600019821415612bbf57612bbf612bda565b5060010190565b600082612bd557612bd5612bf0565b500690565b634e487b7160e01b600052601160045260246000fd5b634e487b7160e01b600052601260045260246000fd5b634e487b7160e01b600052604160045260246000fd5b6001600160e01b031981168114612c3257600080fd5b5056fea26469706673582212204d4630938f8b59227ad884315b6a0a6cc3307ad10280d4134bcbcc3efcdd44e564736f6c63430008040033",
  "linkReferences": {},
  "deployedLinkReferences": {}
}